{
  "contractName": "Kittycontract",
  "abi": [
    {
      "anonymous": false,
      "inputs": [
        {
          "indexed": true,
          "internalType": "address",
          "name": "owner",
          "type": "address"
        },
        {
          "indexed": true,
          "internalType": "address",
          "name": "approved",
          "type": "address"
        },
        {
          "indexed": true,
          "internalType": "uint256",
          "name": "tokenId",
          "type": "uint256"
        }
      ],
      "name": "Approval",
      "type": "event"
    },
    {
      "anonymous": false,
      "inputs": [
        {
          "indexed": true,
          "internalType": "address",
          "name": "owner",
          "type": "address"
        },
        {
          "indexed": true,
          "internalType": "address",
          "name": "operator",
          "type": "address"
        },
        {
          "indexed": false,
          "internalType": "bool",
          "name": "approved",
          "type": "bool"
        }
      ],
      "name": "ApprovalForAll",
      "type": "event"
    },
    {
      "anonymous": false,
      "inputs": [
        {
          "indexed": false,
          "internalType": "address",
          "name": "owner",
          "type": "address"
        },
        {
          "indexed": false,
          "internalType": "uint256",
          "name": "kittenId",
          "type": "uint256"
        },
        {
          "indexed": false,
          "internalType": "uint256",
          "name": "mumId",
          "type": "uint256"
        },
        {
          "indexed": false,
          "internalType": "uint256",
          "name": "dadId",
          "type": "uint256"
        },
        {
          "indexed": false,
          "internalType": "uint256",
          "name": "genes",
          "type": "uint256"
        }
      ],
      "name": "Birth",
      "type": "event"
    },
    {
      "anonymous": false,
      "inputs": [
        {
          "indexed": true,
          "internalType": "address",
          "name": "from",
          "type": "address"
        },
        {
          "indexed": true,
          "internalType": "address",
          "name": "to",
          "type": "address"
        },
        {
          "indexed": true,
          "internalType": "uint256",
          "name": "tokenId",
          "type": "uint256"
        }
      ],
      "name": "Transfer",
      "type": "event"
    },
    {
      "constant": true,
      "inputs": [],
      "name": "CREATION_LIMIT_GEN0",
      "outputs": [
        {
          "internalType": "uint256",
          "name": "",
          "type": "uint256"
        }
      ],
      "payable": false,
      "stateMutability": "view",
      "type": "function"
    },
    {
      "constant": true,
      "inputs": [],
      "name": "gen0Counter",
      "outputs": [
        {
          "internalType": "uint256",
          "name": "",
          "type": "uint256"
        }
      ],
      "payable": false,
      "stateMutability": "view",
      "type": "function"
    },
    {
      "constant": true,
      "inputs": [
        {
          "internalType": "uint256",
          "name": "",
          "type": "uint256"
        }
      ],
      "name": "kittyIndexToApproved",
      "outputs": [
        {
          "internalType": "address",
          "name": "",
          "type": "address"
        }
      ],
      "payable": false,
      "stateMutability": "view",
      "type": "function"
    },
    {
      "constant": true,
      "inputs": [
        {
          "internalType": "uint256",
          "name": "",
          "type": "uint256"
        }
      ],
      "name": "kittyIndexToOwner",
      "outputs": [
        {
          "internalType": "address",
          "name": "",
          "type": "address"
        }
      ],
      "payable": false,
      "stateMutability": "view",
      "type": "function"
    },
    {
      "constant": true,
      "inputs": [],
      "name": "name",
      "outputs": [
        {
          "internalType": "string",
          "name": "",
          "type": "string"
        }
      ],
      "payable": false,
      "stateMutability": "view",
      "type": "function"
    },
    {
      "constant": true,
      "inputs": [],
      "name": "symbol",
      "outputs": [
        {
          "internalType": "string",
          "name": "",
          "type": "string"
        }
      ],
      "payable": false,
      "stateMutability": "view",
      "type": "function"
    },
    {
      "constant": false,
      "inputs": [
        {
          "internalType": "uint256",
          "name": "_dadId",
          "type": "uint256"
        },
        {
          "internalType": "uint256",
          "name": "_mumId",
          "type": "uint256"
        }
      ],
      "name": "breed",
      "outputs": [
        {
          "internalType": "uint256",
          "name": "",
          "type": "uint256"
        }
      ],
      "payable": false,
      "stateMutability": "nonpayable",
      "type": "function"
    },
    {
      "constant": false,
      "inputs": [
        {
          "internalType": "bytes4",
          "name": "_interfaceId",
          "type": "bytes4"
        }
      ],
      "name": "supportsInterface",
      "outputs": [
        {
          "internalType": "bool",
          "name": "",
          "type": "bool"
        }
      ],
      "payable": false,
      "stateMutability": "nonpayable",
      "type": "function"
    },
    {
      "constant": false,
      "inputs": [
        {
          "internalType": "address",
          "name": "_from",
          "type": "address"
        },
        {
          "internalType": "address",
          "name": "_to",
          "type": "address"
        },
        {
          "internalType": "uint256",
          "name": "_tokenId",
          "type": "uint256"
        }
      ],
      "name": "safeTransferFrom",
      "outputs": [],
      "payable": false,
      "stateMutability": "nonpayable",
      "type": "function"
    },
    {
      "constant": false,
      "inputs": [
        {
          "internalType": "address",
          "name": "_from",
          "type": "address"
        },
        {
          "internalType": "address",
          "name": "_to",
          "type": "address"
        },
        {
          "internalType": "uint256",
          "name": "_tokenId",
          "type": "uint256"
        },
        {
          "internalType": "bytes",
          "name": "_data",
          "type": "bytes"
        }
      ],
      "name": "safeTransferFrom",
      "outputs": [],
      "payable": false,
      "stateMutability": "nonpayable",
      "type": "function"
    },
    {
      "constant": false,
      "inputs": [
        {
          "internalType": "address",
          "name": "_from",
          "type": "address"
        },
        {
          "internalType": "address",
          "name": "_to",
          "type": "address"
        },
        {
          "internalType": "uint256",
          "name": "_tokenId",
          "type": "uint256"
        }
      ],
      "name": "transferFrom",
      "outputs": [],
      "payable": false,
      "stateMutability": "nonpayable",
      "type": "function"
    },
    {
      "constant": false,
      "inputs": [
        {
          "internalType": "address",
          "name": "_to",
          "type": "address"
        },
        {
          "internalType": "uint256",
          "name": "_tokenId",
          "type": "uint256"
        }
      ],
      "name": "approve",
      "outputs": [],
      "payable": false,
      "stateMutability": "nonpayable",
      "type": "function"
    },
    {
      "constant": false,
      "inputs": [
        {
          "internalType": "address",
          "name": "operator",
          "type": "address"
        },
        {
          "internalType": "bool",
          "name": "approved",
          "type": "bool"
        }
      ],
      "name": "setApprovalForAll",
      "outputs": [],
      "payable": false,
      "stateMutability": "nonpayable",
      "type": "function"
    },
    {
      "constant": true,
      "inputs": [
        {
          "internalType": "uint256",
          "name": "tokenId",
          "type": "uint256"
        }
      ],
      "name": "getApproved",
      "outputs": [
        {
          "internalType": "address",
          "name": "",
          "type": "address"
        }
      ],
      "payable": false,
      "stateMutability": "view",
      "type": "function"
    },
    {
      "constant": true,
      "inputs": [
        {
          "internalType": "address",
          "name": "owner",
          "type": "address"
        },
        {
          "internalType": "address",
          "name": "operator",
          "type": "address"
        }
      ],
      "name": "isApprovedForAll",
      "outputs": [
        {
          "internalType": "bool",
          "name": "",
          "type": "bool"
        }
      ],
      "payable": false,
      "stateMutability": "view",
      "type": "function"
    },
    {
      "constant": false,
      "inputs": [
        {
          "internalType": "uint256",
          "name": "_genes",
          "type": "uint256"
        }
      ],
      "name": "createKittyGen0",
      "outputs": [
        {
          "internalType": "uint256",
          "name": "",
          "type": "uint256"
        }
      ],
      "payable": false,
      "stateMutability": "nonpayable",
      "type": "function"
    },
    {
      "constant": true,
      "inputs": [
        {
          "internalType": "address",
          "name": "_owner",
          "type": "address"
        }
      ],
      "name": "getKittyByOwner",
      "outputs": [
        {
          "internalType": "uint256[]",
          "name": "",
          "type": "uint256[]"
        }
      ],
      "payable": false,
      "stateMutability": "view",
      "type": "function"
    },
    {
      "constant": true,
      "inputs": [
        {
          "internalType": "uint256",
          "name": "_id",
          "type": "uint256"
        }
      ],
      "name": "getKitty",
      "outputs": [
        {
          "internalType": "uint256",
          "name": "genes",
          "type": "uint256"
        },
        {
          "internalType": "uint256",
          "name": "birthTime",
          "type": "uint256"
        },
        {
          "internalType": "uint256",
          "name": "mumId",
          "type": "uint256"
        },
        {
          "internalType": "uint256",
          "name": "dadId",
          "type": "uint256"
        },
        {
          "internalType": "uint256",
          "name": "generation",
          "type": "uint256"
        }
      ],
      "payable": false,
      "stateMutability": "view",
      "type": "function"
    },
    {
      "constant": true,
      "inputs": [
        {
          "internalType": "address",
          "name": "owner",
          "type": "address"
        }
      ],
      "name": "balanceOf",
      "outputs": [
        {
          "internalType": "uint256",
          "name": "balance",
          "type": "uint256"
        }
      ],
      "payable": false,
      "stateMutability": "view",
      "type": "function"
    },
    {
      "constant": true,
      "inputs": [],
      "name": "totalSupply",
      "outputs": [
        {
          "internalType": "uint256",
          "name": "total",
          "type": "uint256"
        }
      ],
      "payable": false,
      "stateMutability": "view",
      "type": "function"
    },
    {
      "constant": true,
      "inputs": [
        {
          "internalType": "uint256",
          "name": "_tokenId",
          "type": "uint256"
        }
      ],
      "name": "ownerOf",
      "outputs": [
        {
          "internalType": "address",
          "name": "owner",
          "type": "address"
        }
      ],
      "payable": false,
      "stateMutability": "view",
      "type": "function"
    },
    {
      "constant": false,
      "inputs": [
        {
          "internalType": "address",
          "name": "_to",
          "type": "address"
        },
        {
          "internalType": "uint256",
          "name": "_tokenId",
          "type": "uint256"
        }
      ],
      "name": "transfer",
      "outputs": [],
      "payable": false,
      "stateMutability": "nonpayable",
      "type": "function"
    }
  ],
  "bytecode": "0x6080604052336000806101000a81548173ffffffffffffffffffffffffffffffffffffffff021916908373ffffffffffffffffffffffffffffffffffffffff1602179055506120bc806100536000396000f3fe608060405234801561001057600080fd5b50600436106101425760003560e01c806395e6c62f116100b8578063b88d4fde1161007c578063b88d4fde1461075f578063d5a776ca14610864578063d9ecad7b146108a6578063e985e9c5146108f2578063e98b7f4d1461096e578063ef5e94aa146109cc57610142565b806395e6c62f1461059c578063a22cb46514610635578063a45f4bfc14610685578063a9059cbb146106f3578063b48343301461074157610142565b806323b872dd1161010a57806323b872dd1461030957806342842e0e14610377578063481af3d3146103e55780636352211e1461045357806370a08231146104c157806395d89b411461051957610142565b806301ffc9a71461014757806306fdde03146101ac578063081812fc1461022f578063095ea7b31461029d57806318160ddd146102eb575b600080fd5b6101926004803603602081101561015d57600080fd5b8101908080357bffffffffffffffffffffffffffffffffffffffffffffffffffffffff191690602001909291905050506109ea565b604051808215151515815260200191505060405180910390f35b6101b4610a8a565b6040518080602001828103825283818151815260200191508051906020019080838360005b838110156101f45780820151818401526020810190506101d9565b50505050905090810190601f1680156102215780820380516001836020036101000a031916815260200191505b509250505060405180910390f35b61025b6004803603602081101561024557600080fd5b8101908080359060200190929190505050610ac3565b604051808273ffffffffffffffffffffffffffffffffffffffff1673ffffffffffffffffffffffffffffffffffffffff16815260200191505060405180910390f35b6102e9600480360360408110156102b357600080fd5b81019080803573ffffffffffffffffffffffffffffffffffffffff16906020019092919080359060200190929190505050610b7a565b005b6102f3610c5f565b6040518082815260200191505060405180910390f35b6103756004803603606081101561031f57600080fd5b81019080803573ffffffffffffffffffffffffffffffffffffffff169060200190929190803573ffffffffffffffffffffffffffffffffffffffff16906020019092919080359060200190929190505050610c6c565b005b6103e36004803603606081101561038d57600080fd5b81019080803573ffffffffffffffffffffffffffffffffffffffff169060200190929190803573ffffffffffffffffffffffffffffffffffffffff16906020019092919080359060200190929190505050610d34565b005b610411600480360360208110156103fb57600080fd5b8101908080359060200190929190505050610d54565b604051808273ffffffffffffffffffffffffffffffffffffffff1673ffffffffffffffffffffffffffffffffffffffff16815260200191505060405180910390f35b61047f6004803603602081101561046957600080fd5b8101908080359060200190929190505050610d87565b604051808273ffffffffffffffffffffffffffffffffffffffff1673ffffffffffffffffffffffffffffffffffffffff16815260200191505060405180910390f35b610503600480360360208110156104d757600080fd5b81019080803573ffffffffffffffffffffffffffffffffffffffff169060200190929190505050610dc4565b6040518082815260200191505060405180910390f35b610521610e0d565b6040518080602001828103825283818151815260200191508051906020019080838360005b83811015610561578082015181840152602081019050610546565b50505050905090810190601f16801561058e5780820380516001836020036101000a031916815260200191505b509250505060405180910390f35b6105de600480360360208110156105b257600080fd5b81019080803573ffffffffffffffffffffffffffffffffffffffff169060200190929190505050610e46565b6040518080602001828103825283818151815260200191508051906020019060200280838360005b83811015610621578082015181840152602081019050610606565b505050509050019250505060405180910390f35b6106836004803603604081101561064b57600080fd5b81019080803573ffffffffffffffffffffffffffffffffffffffff169060200190929190803515159060200190929190505050610f73565b005b6106b16004803603602081101561069b57600080fd5b81019080803590602001909291905050506110ad565b604051808273ffffffffffffffffffffffffffffffffffffffff1673ffffffffffffffffffffffffffffffffffffffff16815260200191505060405180910390f35b61073f6004803603604081101561070957600080fd5b81019080803573ffffffffffffffffffffffffffffffffffffffff169060200190929190803590602001909291905050506110e0565b005b6107496112b0565b6040518082815260200191505060405180910390f35b6108626004803603608081101561077557600080fd5b81019080803573ffffffffffffffffffffffffffffffffffffffff169060200190929190803573ffffffffffffffffffffffffffffffffffffffff16906020019092919080359060200190929190803590602001906401000000008111156107dc57600080fd5b8201836020820111156107ee57600080fd5b8035906020019184600183028401116401000000008311171561081057600080fd5b91908080601f016020809104026020016040519081016040528093929190818152602001838380828437600081840152601f19601f8201169050808301925050505050505091929192905050506112b5565b005b6108906004803603602081101561087a57600080fd5b8101908080359060200190929190505050611345565b6040518082815260200191505060405180910390f35b6108dc600480360360408110156108bc57600080fd5b810190808035906020019092919080359060200190929190505050611440565b6040518082815260200191505060405180910390f35b6109546004803603604081101561090857600080fd5b81019080803573ffffffffffffffffffffffffffffffffffffffff169060200190929190803573ffffffffffffffffffffffffffffffffffffffff16906020019092919050505061154f565b604051808215151515815260200191505060405180910390f35b61099a6004803603602081101561098457600080fd5b81019080803590602001909291905050506115e3565b604051808681526020018581526020018481526020018381526020018281526020019550505050505060405180910390f35b6109d4611692565b6040518082815260200191505060405180910390f35b60006380ac58cd60e01b7bffffffffffffffffffffffffffffffffffffffffffffffffffffffff1916827bffffffffffffffffffffffffffffffffffffffffffffffffffffffff19161480610a8357506301ffc9a760e01b7bffffffffffffffffffffffffffffffffffffffffffffffffffffffff1916827bffffffffffffffffffffffffffffffffffffffffffffffffffffffff1916145b9050919050565b6040518060400160405280600d81526020017f416d6974795f6b6974746965730000000000000000000000000000000000000081525081565b60006001805490508210610b3f576040517f08c379a00000000000000000000000000000000000000000000000000000000081526004018080602001828103825260038152602001807f496e34000000000000000000000000000000000000000000000000000000000081525060200191505060405180910390fd5b6004600083815260200190815260200160002060009054906101000a900473ffffffffffffffffffffffffffffffffffffffff169050919050565b610b843382611698565b610bf6576040517f08c379a00000000000000000000000000000000000000000000000000000000081526004018080602001828103825260038152602001807f496e33000000000000000000000000000000000000000000000000000000000081525060200191505060405180910390fd5b610c008183611704565b808273ffffffffffffffffffffffffffffffffffffffff163373ffffffffffffffffffffffffffffffffffffffff167f8c5be1e5ebec7d5bd14f71427d1e84f3dd0314c0f7b2291e5b200ac8c7c3b92560405160405180910390a45050565b6000600180549050905090565b600073ffffffffffffffffffffffffffffffffffffffff168273ffffffffffffffffffffffffffffffffffffffff161415610ca657600080fd5b8273ffffffffffffffffffffffffffffffffffffffff163373ffffffffffffffffffffffffffffffffffffffff161480610ce65750610ce5338261175a565b5b80610cf75750610cf6833361154f565b5b610d0057600080fd5b610d0a8382611698565b610d1357600080fd5b6001805490508110610d2457600080fd5b610d2f8383836117c6565b505050565b610d4f838383604051806020016040528060008152506112b5565b505050565b60046020528060005260406000206000915054906101000a900473ffffffffffffffffffffffffffffffffffffffff1681565b60006002600083815260200190815260200160002060009054906101000a900473ffffffffffffffffffffffffffffffffffffffff169050919050565b6000600360008373ffffffffffffffffffffffffffffffffffffffff1673ffffffffffffffffffffffffffffffffffffffff168152602001908152602001600020549050919050565b6040518060400160405280600281526020017f414b00000000000000000000000000000000000000000000000000000000000081525081565b606080600360008473ffffffffffffffffffffffffffffffffffffffff1673ffffffffffffffffffffffffffffffffffffffff16815260200190815260200160002054604051908082528060200260200182016040528015610eb75781602001602082028038833980820191505090505b509050600080905060008090505b600180549050811015610f68578473ffffffffffffffffffffffffffffffffffffffff166002600083815260200190815260200160002060009054906101000a900473ffffffffffffffffffffffffffffffffffffffff1673ffffffffffffffffffffffffffffffffffffffff161415610f5b5780838381518110610f4657fe5b60200260200101818152505081806001019250505b8080600101915050610ec5565b508192505050919050565b3373ffffffffffffffffffffffffffffffffffffffff168273ffffffffffffffffffffffffffffffffffffffff161415610fac57600080fd5b80600560003373ffffffffffffffffffffffffffffffffffffffff1673ffffffffffffffffffffffffffffffffffffffff16815260200190815260200160002060008473ffffffffffffffffffffffffffffffffffffffff1673ffffffffffffffffffffffffffffffffffffffff16815260200190815260200160002060006101000a81548160ff0219169083151502179055508173ffffffffffffffffffffffffffffffffffffffff163373ffffffffffffffffffffffffffffffffffffffff167f17307eab39ab6107e8899845ad3d59bd9653f200f220920489ca2b5937696c3183604051808215151515815260200191505060405180910390a35050565b60026020528060005260406000206000915054906101000a900473ffffffffffffffffffffffffffffffffffffffff1681565b600073ffffffffffffffffffffffffffffffffffffffff168273ffffffffffffffffffffffffffffffffffffffff161415611183576040517f08c379a00000000000000000000000000000000000000000000000000000000081526004018080602001828103825260038152602001807f496e36000000000000000000000000000000000000000000000000000000000081525060200191505060405180910390fd5b3073ffffffffffffffffffffffffffffffffffffffff168273ffffffffffffffffffffffffffffffffffffffff161415611225576040517f08c379a00000000000000000000000000000000000000000000000000000000081526004018080602001828103825260038152602001807f496e37000000000000000000000000000000000000000000000000000000000081525060200191505060405180910390fd5b61122f3382611698565b6112a1576040517f08c379a00000000000000000000000000000000000000000000000000000000081526004018080602001828103825260038152602001807f496e38000000000000000000000000000000000000000000000000000000000081525060200191505060405180910390fd5b6112ac3383836117c6565b5050565b600a81565b6112c133858585611982565b611333576040517f08c379a00000000000000000000000000000000000000000000000000000000081526004018080602001828103825260038152602001807f496e31000000000000000000000000000000000000000000000000000000000081525060200191505060405180910390fd5b61133f84848484611b78565b50505050565b60008060009054906101000a900473ffffffffffffffffffffffffffffffffffffffff1673ffffffffffffffffffffffffffffffffffffffff163373ffffffffffffffffffffffffffffffffffffffff16146113a057600080fd5b600a60075410611418576040517f08c379a00000000000000000000000000000000000000000000000000000000081526004018080602001828103825260038152602001807f496e35000000000000000000000000000000000000000000000000000000000081525060200191505060405180910390fd5b60076000815480929190600101919050555061143960008060008533611c07565b9050919050565b600061144c3384611698565b6114be576040517f08c379a00000000000000000000000000000000000000000000000000000000081526004018080602001828103825260208152602001807f546865205573657220646f6573206e6f74206f776e207468697320746f6b656e81525060200191505060405180910390fd5b6114c83383611698565b61153a576040517f08c379a000000000000000000000000000000000000000000000000000000000815260040180806020018281038252601e8152602001807f546865207573657220646f65736e2774206f776e2074686520746f6b656e000081525060200191505060405180910390fd5b60006115468484611dd1565b90505092915050565b6000600560008473ffffffffffffffffffffffffffffffffffffffff1673ffffffffffffffffffffffffffffffffffffffff16815260200190815260200160002060008373ffffffffffffffffffffffffffffffffffffffff1673ffffffffffffffffffffffffffffffffffffffff16815260200190815260200160002060009054906101000a900460ff16905092915050565b600080600080600080600187815481106115f957fe5b906000526020600020906002020190508060010160009054906101000a900467ffffffffffffffff1667ffffffffffffffff1694508060010160089054906101000a900463ffffffff1663ffffffff16935080600101600c9054906101000a900463ffffffff1663ffffffff1692508060010160109054906101000a900461ffff1661ffff169150806000015495505091939590929450565b60075481565b60008273ffffffffffffffffffffffffffffffffffffffff166002600084815260200190815260200160002060009054906101000a900473ffffffffffffffffffffffffffffffffffffffff1673ffffffffffffffffffffffffffffffffffffffff1614905092915050565b806004600084815260200190815260200160002060006101000a81548173ffffffffffffffffffffffffffffffffffffffff021916908373ffffffffffffffffffffffffffffffffffffffff1602179055505050565b60008273ffffffffffffffffffffffffffffffffffffffff166004600084815260200190815260200160002060009054906101000a900473ffffffffffffffffffffffffffffffffffffffff1673ffffffffffffffffffffffffffffffffffffffff1614905092915050565b600360008373ffffffffffffffffffffffffffffffffffffffff1673ffffffffffffffffffffffffffffffffffffffff16815260200190815260200160002060008154809291906001019190505550816002600083815260200190815260200160002060006101000a81548173ffffffffffffffffffffffffffffffffffffffff021916908373ffffffffffffffffffffffffffffffffffffffff160217905550600073ffffffffffffffffffffffffffffffffffffffff168373ffffffffffffffffffffffffffffffffffffffff161461192257600360008473ffffffffffffffffffffffffffffffffffffffff1673ffffffffffffffffffffffffffffffffffffffff16815260200190815260200160002060008154809291906001900391905055506004600082815260200190815260200160002060006101000a81549073ffffffffffffffffffffffffffffffffffffffff02191690555b808273ffffffffffffffffffffffffffffffffffffffff168473ffffffffffffffffffffffffffffffffffffffff167fddf252ad1be2c89b69c2b068fc378daa952ba7f163c4a11628f55a4df523b3ef60405160405180910390a4505050565b600060018054905082106119fe576040517f08c379a00000000000000000000000000000000000000000000000000000000081526004018080602001828103825260038152602001807f496e39000000000000000000000000000000000000000000000000000000000081525060200191505060405180910390fd5b600073ffffffffffffffffffffffffffffffffffffffff168373ffffffffffffffffffffffffffffffffffffffff161415611aa1576040517f08c379a00000000000000000000000000000000000000000000000000000000081526004018080602001828103825260048152602001807f496e31300000000000000000000000000000000000000000000000000000000081525060200191505060405180910390fd5b611aab8483611698565b611b1d576040517f08c379a00000000000000000000000000000000000000000000000000000000081526004018080602001828103825260048152602001807f496e31310000000000000000000000000000000000000000000000000000000081525060200191505060405180910390fd5b8373ffffffffffffffffffffffffffffffffffffffff168573ffffffffffffffffffffffffffffffffffffffff161480611b5d5750611b5c858361175a565b5b80611b6e5750611b6d848661154f565b5b9050949350505050565b611b838484846117c6565b611b8f84848484611e12565b611c01576040517f08c379a00000000000000000000000000000000000000000000000000000000081526004018080602001828103825260038152602001807f496e32000000000000000000000000000000000000000000000000000000000081525060200191505060405180910390fd5b50505050565b6000611c1161200f565b6040518060a001604052808581526020014267ffffffffffffffff1681526020018863ffffffff1681526020018763ffffffff1681526020018661ffff168152509050600060018083908060018154018082558091505090600182039060005260206000209060020201600090919290919091506000820151816000015560208201518160010160006101000a81548167ffffffffffffffff021916908367ffffffffffffffff16021790555060408201518160010160086101000a81548163ffffffff021916908363ffffffff160217905550606082015181600101600c6101000a81548163ffffffff021916908363ffffffff16021790555060808201518160010160106101000a81548161ffff021916908361ffff16021790555050500390507f0a5311bd2a6608f08a180df2ee7c5946819a649b204b554bb8e39825b2c50ad584828a8a89604051808673ffffffffffffffffffffffffffffffffffffffff1673ffffffffffffffffffffffffffffffffffffffff1681526020018581526020018481526020018381526020018281526020019550505050505060405180910390a1611dc3600085836117c6565b809250505095945050505050565b6000806305f5e1008481611de157fe5b04905060006305f5e1008481611df357fe5b06905060006305f5e10083029050818101905080935050505092915050565b6000611e1d84611ff6565b611e2a5760019050611fee565b60008473ffffffffffffffffffffffffffffffffffffffff1663150b7a02338887876040518563ffffffff1660e01b8152600401808573ffffffffffffffffffffffffffffffffffffffff1673ffffffffffffffffffffffffffffffffffffffff1681526020018473ffffffffffffffffffffffffffffffffffffffff1673ffffffffffffffffffffffffffffffffffffffff16815260200183815260200180602001828103825283818151815260200191508051906020019080838360005b83811015611f05578082015181840152602081019050611eea565b50505050905090810190601f168015611f325780820380516001836020036101000a031916815260200191505b5095505050505050602060405180830381600087803b158015611f5457600080fd5b505af1158015611f68573d6000803e3d6000fd5b505050506040513d6020811015611f7e57600080fd5b810190808051906020019092919050505090506040518080612059602f9139602f01905060405180910390207bffffffffffffffffffffffffffffffffffffffffffffffffffffffff1916817bffffffffffffffffffffffffffffffffffffffffffffffffffffffff1916149150505b949350505050565b600080823b905060008163ffffffff1611915050919050565b6040518060a0016040528060008152602001600067ffffffffffffffff168152602001600063ffffffff168152602001600063ffffffff168152602001600061ffff168152509056fe6f6e455243373231526563656976656428616464726573732c616464726573732c75696e743235362c627974657329a265627a7a723158202a2d57e09675350c9a86f22adf19f0c174fc5015c422299ac30bd669324ed2cc64736f6c634300050c0032",
  "source": "pragma solidity ^0.5.12;\r\nimport \"./IERC721.sol\";\r\nimport \"./Ownable.sol\";\r\nimport \"./IERC721Receiver.sol\";\r\ncontract Kittycontract is IERC721,Ownable{\r\n\r\n    uint256 public constant CREATION_LIMIT_GEN0 = 10; \r\n    string public constant name=\"Amity_kitties\";\r\n    string public constant symbol=\"AK\";\r\n    bytes4 internal constant MAGIC_ERC721_RECEIEVED= bytes4(keccak256(\"onERC721Received(address,address,uint256,bytes)\"));\r\n    bytes4 private constant _INTERFACE_ID_ERC721 = 0x80ac58cd;\r\n    bytes4 private constant _INTERFACE_ID_ERC165 = 0x01ffc9a7;\r\n\r\n    event Birth //now the website can know when the birth of a new kitten happens\r\n    (\r\n        address owner, \r\n        uint256 kittenId,\r\n        uint256 mumId, \r\n        uint256 dadId,\r\n        uint256 genes\r\n    );\r\n\r\n    struct Kitty{\r\n        uint256 genes;\r\n        uint64 birthTime;\r\n        uint32 mumId;\r\n        uint32 dadId;\r\n        uint16 generation;\r\n    }\r\n    Kitty[] kitties;\r\n\r\n    mapping(uint256=> address) public kittyIndexToOwner;\r\n    mapping(address => uint256) ownershipTokenCount;\r\n    mapping(uint256 => address) public kittyIndexToApproved; \r\n    //give approval to someone else also to transfer token..transferring rights..behalf of someone else\r\n    mapping(address => mapping(address => bool)) private _operatorApprovals;\r\n    mapping(address => uint) balance;\r\n    //MYADDR => OpearatorAddr => True/False\r\n    // ---------------------------------\r\n        function breed(uint256 _dadId, uint256 _mumId) public returns(uint256)\r\n        {\r\n            require(_owns(msg.sender,_dadId), \"The User does not own this token\");\r\n            require(_owns(msg.sender,_mumId), \"The user doesn't own the token\");\r\n            //Check Ownership\r\n            //You got the dna\r\n            //Figure out the generation\r\n            //Create a new cat with the new properties and give it to msg.sender\r\n            uint256 newDna =  _mixDna(_dadId,_mumId);\r\n        }\r\n    \r\n    // --------------------------------\r\n    function supportsInterface(bytes4 _interfaceId) external returns (bool)\r\n    {\r\n        return (_interfaceId == _INTERFACE_ID_ERC721 || _interfaceId == _INTERFACE_ID_ERC165);\r\n    }\r\n\r\n    // -----------------------------------------------------------\r\n    function safeTransferFrom(address _from,address _to, uint256 _tokenId) public{\r\n        safeTransferFrom(_from, _to, _tokenId, \"\");\r\n        //we call the safetransferfrom but with data as an empty string\r\n    }\r\n    //---------------------------------------------------------------------\r\n    function safeTransferFrom(address _from,address _to,uint256 _tokenId,bytes memory _data) public {\r\n        require(_isApprovedOrOwner(msg.sender,_from,_to,_tokenId),\"In1\");\r\n        _safeTransfer(_from, _to, _tokenId, _data);\r\n    }\r\n    // ------------------------------------------------------------------\r\n    function _safeTransfer(address _from, address _to, uint256 _tokenId, bytes memory _data) internal\r\n    {\r\n        _transfer(_from,_to,_tokenId);\r\n        require(_checkERC721Support(_from,_to,_tokenId,_data),\"In2\");\r\n\r\n    }\r\n    // --------------------------------------------------------\r\n    // ---------------------------------------------\r\n    function transferFrom(address _from,address  _to,uint256 _tokenId) public\r\n    {\r\n        require(_to != address(0)); //cannot send to zero address\r\n        require(msg.sender == _from || _approvedFor(msg.sender,_tokenId) || isApprovedForAll(_from,msg.sender));\r\n        //either the msg.sender is the from address  or msg.sender is an approved address for the token or msg.sender has approval for all the tokens of _from\r\n        require(_owns(_from,_tokenId));\r\n        //fromaddress actually owns this tokenId\r\n        require(_tokenId < kitties.length);\r\n        \r\n        _transfer(_from,_to,_tokenId);\r\n    }\r\n    function approve(address _to,uint256 _tokenId) public \r\n    {\r\n        //give approval for one specific tokenId \r\n        require(_owns(msg.sender, _tokenId),\"In3\");\r\n\r\n        _approve(_tokenId,_to); //internal approve func\r\n        emit Approval(msg.sender, _to, _tokenId); //emit the approval\r\n    }\r\n    function setApprovalForAll(address operator, bool approved) public\r\n    {\r\n        require(operator != msg.sender);\r\n        _operatorApprovals[msg.sender][operator] = approved; //true/false\r\n        emit ApprovalForAll(msg.sender, operator, approved); //we can set and withdraw approval\r\n    }\r\n    function getApproved(uint256 tokenId) public view returns(address)\r\n    {\r\n        //get the status of a specif token approval\r\n        require(tokenId < kitties.length,\"In4\"); //Token must exist..If the tokenId is not a valid toke..now all our tokens will be in the kitties array..[0,1,2,3,4]//so length will be 5..now 5 will not be approved coz it's not \"<\"\r\n        return kittyIndexToApproved[tokenId]; //returns address of the tokenId that has approval\r\n    }\r\n    function isApprovedForAll(address owner, address operator) public view returns(bool)\r\n    {\r\n        //getter for isApprovedForAll..here we get the bool back i.e., either true or false..if a specific operator is an approved operator for this specific owner  \r\n        return _operatorApprovals[owner][operator];\r\n    }\r\n    //both Gen0 and Breeding will use this internal function CreateKitty\r\n    function  _createKitty(\r\n        uint256 _mumId,\r\n        uint256 _dadId,\r\n        uint256 _generation,\r\n        uint256 _genes,\r\n        address _owner\r\n    )private returns (uint256){\r\n        Kitty memory _kitty = Kitty({\r\n            genes: _genes,\r\n            birthTime: uint64(now),\r\n            mumId: uint32(_mumId),\r\n            dadId: uint32(_dadId),\r\n            generation: uint16(_generation)\r\n        });\r\n        uint256 newKittenId = kitties.push(_kitty) - 1;\r\n         //from this push function..it will return the size of the array\r\n        //now for transfer we are using an internal transfer function\r\n\r\n        emit Birth(_owner,newKittenId,_mumId,_dadId,_genes);\r\n\r\n        _transfer(address(0), _owner, newKittenId);\r\n        //address full of 0's to owner and ownership of newKittenId\r\n\r\n        return(newKittenId);\r\n    }\r\n    //function to add new gen0 cats\r\n    uint256 public gen0Counter; //count how many gen0 cats wehave created\r\n    function createKittyGen0(uint256 _genes) public onlyOwner returns(uint256){\r\n        //This will take the genes that we send in from the front end when we create the cat..using that the sliders and gen0 should use the private kitty function\r\n        \r\n\r\n        require(gen0Counter < CREATION_LIMIT_GEN0,\"In5\");\r\n\r\n        gen0Counter++;\r\n        return _createKitty(0, 0, 0, _genes,msg.sender);\r\n\r\n    }\r\n    // -------------------------------------------------------\r\n \r\n    // -------------------------------------------------\r\n    function getKittyByOwner(address _owner) external view returns(uint[] memory)\r\n    {\r\n        uint[] memory result = new uint[](ownershipTokenCount[_owner]);\r\n        uint counter = 0;\r\n        for (uint i=0; i<kitties.length;i++)\r\n        {\r\n            if(kittyIndexToOwner[i] == _owner)\r\n            {\r\n                result[counter] = i;\r\n                counter++;\r\n            }\r\n        }\r\n        return result;\r\n    }\r\n    // ----------------------------------\r\n    function getKitty(uint256 _id) public view returns (\r\n        uint256 genes,\r\n        uint256 birthTime,\r\n        uint256 mumId,\r\n        uint256 dadId,\r\n        uint256 generation\r\n\r\n    )\r\n    {\r\n       Kitty storage kitty = kitties[_id]; //why storage so it will take less spce...we say that this cat is in memory and we just need the pointer to it\r\n       \r\n       birthTime = uint256(kitty.birthTime); //256 is way easier to read in the front end\r\n       mumId = uint256(kitty.mumId);\r\n       dadId = uint256(kitty.dadId);\r\n       generation = uint256(kitty.generation);\r\n       genes = kitty.genes;\r\n\r\n    }\r\n    function balanceOf(address owner) external view returns (uint256 balance){\r\n        return ownershipTokenCount[owner];\r\n    }\r\n\r\n    function totalSupply() external view returns (uint256 total){\r\n        return kitties.length;\r\n    }\r\n    function ownerOf(uint256 _tokenId) external view returns (address owner){\r\n        return kittyIndexToOwner[_tokenId];\r\n    }\r\n    function transfer(address _to, uint256 _tokenId) external{\r\n        require(_to !=address(0),\"In6\");\r\n        require(_to !=address(this),\"In7\");\r\n        require(_owns(msg.sender,_tokenId),\"In8\");\r\n\r\n        _transfer(msg.sender, _to, _tokenId);\r\n    }\r\n    function _transfer(address _from, address _to, uint256 _tokenId) internal{\r\n        ownershipTokenCount[_to]++;\r\n        kittyIndexToOwner[_tokenId]=_to;\r\n        if(_from !=address(0)){\r\n            ownershipTokenCount[_from]--;\r\n            delete kittyIndexToApproved[_tokenId];\r\n        }\r\n        emit Transfer(_from,_to,_tokenId);\r\n    } \r\n    function _owns(address _claimant,uint256 _tokenId) internal view returns(bool){\r\n        return kittyIndexToOwner[_tokenId]==_claimant;\r\n    }\r\n\r\n    function _approve(uint256 _tokenId,address _approved) internal\r\n    {\r\n        kittyIndexToApproved[_tokenId] = _approved;\r\n    }\r\n    function _approvedFor(address _claimant, uint256 _tokenId) internal view returns (bool)\r\n    {\r\n        return kittyIndexToApproved[_tokenId] == _claimant;\r\n        //if they have approval then true or else false\r\n    }\r\n    function _checkERC721Support(address _from, address _to, uint256 _tokenId,bytes memory _data) internal returns(bool)\r\n    {\r\n        if(!_isContract(_to))\r\n        {\r\n            return true;\r\n        }\r\n\r\n        bytes4 returnData = IERC721Receiver(_to).onERC721Received(msg.sender,_from,_tokenId,_data); //This is going to let us call a function to this _to by defining the function header that we need for onERC721Receieved\r\n\r\n        //If it is a contract then we have to execute onERC721Receievd in _to contract. Then we have to check the return value\r\n        return returnData == MAGIC_ERC721_RECEIEVED;\r\n\r\n    }\r\n    function _isContract(address _to) view internal returns (bool)\r\n    {\r\n        uint32 size;\r\n        assembly{\r\n            size := extcodesize(_to)\r\n        }\r\n        return size > 0; //it is a contract if size is grater than 0\r\n    }\r\n    function _isApprovedOrOwner(address _spender, address _from, address _to,uint256 _tokenId) internal view returns(bool)\r\n    {\r\n        require(_tokenId<kitties.length,\"In9\"); //Token must exist\r\n        require(_to != address(0),\"In10\"); //To address is not 0 addess\r\n        require(_owns(_from,_tokenId),\"In11\"); //From owns the token\r\n\r\n        //_spender is from OR spender is approved for tokenId or spender is operator for from\r\n        return(_spender == _from || _approvedFor(_spender,_tokenId) || isApprovedForAll(_from,_spender));\r\n    }\r\n\r\n\r\n    function _mixDna(uint256 _dadDna, uint256 _mumDna) internal returns (uint256)\r\n    {\r\n        //Basic DNA Mixing\r\n        //dadDna: 11 22 33 44 55 66 77 88\r\n        //mumDna: 88 77 66 55 44 33 22 11\r\n        uint256 firstHalf = _dadDna / 100000000; //11 22 33 44\r\n        uint256 secondHalf = _mumDna % 100000000;// 44 33 22 11\r\n        //10 + 20\r\n        //10 * 100 = 1000\r\n        //1000 + 20 =1020\r\n\r\n        uint256 newDna = (firstHalf * 100000000);\r\n        newDna = newDna + secondHalf;\r\n        return newDna;\r\n\r\n        //FinalDna = 11 22 33 44  44 33 22 11\r\n\r\n    }\r\n}",
  "sourcePath": "C:\\Users\\aayum_vuuxn0b\\OneDrive\\Documents\\Kitties-boilerplate\\contracts\\KittyContracts.sol",
  "compiler": {
    "name": "solc",
    "version": "0.5.12+commit.7709ece9.Emscripten.clang"
  },
  "schemaVersion": "3.4.5",
  "updatedAt": "2022-03-22T17:04:23.730Z",
  "devdoc": {
    "methods": {}
  },
  "userdoc": {
    "methods": {}
  }
}